{
  "_format": "hh-sol-artifact-1",
  "contractName": "AutoSendAssets",
  "sourceName": "contracts/AutoSendAssets.sol",
  "abi": [
    {
      "inputs": [
        {
          "internalType": "address",
          "name": "_platformWallet",
          "type": "address"
        }
      ],
      "stateMutability": "nonpayable",
      "type": "constructor"
    },
    {
      "inputs": [
        {
          "internalType": "address",
          "name": "owner",
          "type": "address"
        }
      ],
      "name": "OwnableInvalidOwner",
      "type": "error"
    },
    {
      "inputs": [
        {
          "internalType": "address",
          "name": "account",
          "type": "address"
        }
      ],
      "name": "OwnableUnauthorizedAccount",
      "type": "error"
    },
    {
      "inputs": [],
      "name": "ReentrancyGuardReentrantCall",
      "type": "error"
    },
    {
      "anonymous": false,
      "inputs": [
        {
          "indexed": true,
          "internalType": "address",
          "name": "previousOwner",
          "type": "address"
        },
        {
          "indexed": true,
          "internalType": "address",
          "name": "newOwner",
          "type": "address"
        }
      ],
      "name": "OwnershipTransferred",
      "type": "event"
    },
    {
      "anonymous": false,
      "inputs": [
        {
          "indexed": false,
          "internalType": "address",
          "name": "sender",
          "type": "address"
        },
        {
          "indexed": false,
          "internalType": "uint256",
          "name": "amount",
          "type": "uint256"
        }
      ],
      "name": "Received",
      "type": "event"
    },
    {
      "anonymous": false,
      "inputs": [
        {
          "indexed": true,
          "internalType": "address",
          "name": "user",
          "type": "address"
        },
        {
          "indexed": true,
          "internalType": "address",
          "name": "recipient",
          "type": "address"
        },
        {
          "indexed": false,
          "internalType": "string",
          "name": "description",
          "type": "string"
        },
        {
          "indexed": false,
          "internalType": "address",
          "name": "asset",
          "type": "address"
        },
        {
          "indexed": false,
          "internalType": "uint256",
          "name": "amount",
          "type": "uint256"
        },
        {
          "indexed": false,
          "internalType": "uint256",
          "name": "interval",
          "type": "uint256"
        },
        {
          "indexed": false,
          "internalType": "uint256",
          "name": "lastExecutedTime",
          "type": "uint256"
        },
        {
          "indexed": false,
          "internalType": "uint256",
          "name": "expiredTime",
          "type": "uint256"
        },
        {
          "indexed": true,
          "internalType": "enum AutoSendAssets.State",
          "name": "state",
          "type": "uint8"
        },
        {
          "indexed": false,
          "internalType": "uint256",
          "name": "blockTime",
          "type": "uint256"
        }
      ],
      "name": "StateUpdated",
      "type": "event"
    },
    {
      "stateMutability": "payable",
      "type": "fallback"
    },
    {
      "inputs": [],
      "name": "FEE_PERCENTAGE",
      "outputs": [
        {
          "internalType": "uint256",
          "name": "",
          "type": "uint256"
        }
      ],
      "stateMutability": "view",
      "type": "function"
    },
    {
      "inputs": [
        {
          "internalType": "uint256",
          "name": "index",
          "type": "uint256"
        }
      ],
      "name": "cancelSchedule",
      "outputs": [],
      "stateMutability": "nonpayable",
      "type": "function"
    },
    {
      "inputs": [
        {
          "internalType": "bytes",
          "name": "",
          "type": "bytes"
        }
      ],
      "name": "checkUpkeep",
      "outputs": [
        {
          "internalType": "bool",
          "name": "upkeepNeeded",
          "type": "bool"
        },
        {
          "internalType": "bytes",
          "name": "performData",
          "type": "bytes"
        }
      ],
      "stateMutability": "view",
      "type": "function"
    },
    {
      "inputs": [
        {
          "internalType": "string",
          "name": "description",
          "type": "string"
        },
        {
          "internalType": "address",
          "name": "asset",
          "type": "address"
        },
        {
          "internalType": "address",
          "name": "recipient",
          "type": "address"
        },
        {
          "internalType": "uint256",
          "name": "amount",
          "type": "uint256"
        },
        {
          "internalType": "uint256",
          "name": "interval",
          "type": "uint256"
        },
        {
          "internalType": "uint256",
          "name": "expiredTime",
          "type": "uint256"
        }
      ],
      "name": "createSchedule",
      "outputs": [],
      "stateMutability": "nonpayable",
      "type": "function"
    },
    {
      "inputs": [],
      "name": "getBalance",
      "outputs": [
        {
          "internalType": "uint256",
          "name": "",
          "type": "uint256"
        }
      ],
      "stateMutability": "view",
      "type": "function"
    },
    {
      "inputs": [],
      "name": "getSchedules",
      "outputs": [
        {
          "components": [
            {
              "internalType": "address",
              "name": "sender",
              "type": "address"
            },
            {
              "internalType": "string",
              "name": "description",
              "type": "string"
            },
            {
              "internalType": "address",
              "name": "asset",
              "type": "address"
            },
            {
              "internalType": "address",
              "name": "recipient",
              "type": "address"
            },
            {
              "internalType": "uint256",
              "name": "amount",
              "type": "uint256"
            },
            {
              "internalType": "uint256",
              "name": "interval",
              "type": "uint256"
            },
            {
              "internalType": "uint256",
              "name": "lastExecutedTime",
              "type": "uint256"
            },
            {
              "internalType": "uint256",
              "name": "expiredTime",
              "type": "uint256"
            },
            {
              "internalType": "enum AutoSendAssets.State",
              "name": "state",
              "type": "uint8"
            }
          ],
          "internalType": "struct AutoSendAssets.Schedule[]",
          "name": "",
          "type": "tuple[]"
        }
      ],
      "stateMutability": "view",
      "type": "function"
    },
    {
      "inputs": [],
      "name": "getUsers",
      "outputs": [
        {
          "internalType": "address[]",
          "name": "",
          "type": "address[]"
        }
      ],
      "stateMutability": "view",
      "type": "function"
    },
    {
      "inputs": [],
      "name": "owner",
      "outputs": [
        {
          "internalType": "address",
          "name": "",
          "type": "address"
        }
      ],
      "stateMutability": "view",
      "type": "function"
    },
    {
      "inputs": [
        {
          "internalType": "bytes",
          "name": "performData",
          "type": "bytes"
        }
      ],
      "name": "performUpkeep",
      "outputs": [],
      "stateMutability": "nonpayable",
      "type": "function"
    },
    {
      "inputs": [],
      "name": "platformWallet",
      "outputs": [
        {
          "internalType": "address",
          "name": "",
          "type": "address"
        }
      ],
      "stateMutability": "view",
      "type": "function"
    },
    {
      "inputs": [],
      "name": "renounceOwnership",
      "outputs": [],
      "stateMutability": "nonpayable",
      "type": "function"
    },
    {
      "inputs": [
        {
          "internalType": "address",
          "name": "newOwner",
          "type": "address"
        }
      ],
      "name": "transferOwnership",
      "outputs": [],
      "stateMutability": "nonpayable",
      "type": "function"
    },
    {
      "inputs": [
        {
          "internalType": "uint256",
          "name": "_newFee",
          "type": "uint256"
        }
      ],
      "name": "updateFee",
      "outputs": [],
      "stateMutability": "nonpayable",
      "type": "function"
    },
    {
      "inputs": [
        {
          "internalType": "address",
          "name": "_platformWallet",
          "type": "address"
        }
      ],
      "name": "updatePlatformWallet",
      "outputs": [],
      "stateMutability": "nonpayable",
      "type": "function"
    },
    {
      "inputs": [
        {
          "internalType": "uint256",
          "name": "index",
          "type": "uint256"
        },
        {
          "internalType": "string",
          "name": "description",
          "type": "string"
        },
        {
          "internalType": "address",
          "name": "asset",
          "type": "address"
        },
        {
          "internalType": "address",
          "name": "recipient",
          "type": "address"
        },
        {
          "internalType": "uint256",
          "name": "amount",
          "type": "uint256"
        },
        {
          "internalType": "uint256",
          "name": "interval",
          "type": "uint256"
        },
        {
          "internalType": "uint256",
          "name": "expiredTime",
          "type": "uint256"
        }
      ],
      "name": "updateSchedule",
      "outputs": [],
      "stateMutability": "nonpayable",
      "type": "function"
    },
    {
      "stateMutability": "payable",
      "type": "receive"
    }
  ],
  "bytecode": "0x608060405260056003553480156200001657600080fd5b506040516200248238038062002482833981016040819052620000399162000142565b600160005533806200006657604051631e4fbdf760e01b8152600060048201526024015b60405180910390fd5b6200007181620000f0565b506001600160a01b038116620000ca5760405162461bcd60e51b815260206004820152601760248201527f496e76616c696420706c6174666f726d2077616c6c657400000000000000000060448201526064016200005d565b600280546001600160a01b0319166001600160a01b039290921691909117905562000174565b600180546001600160a01b038381166001600160a01b0319831681179093556040519116919082907f8be0079c531659141344cd1fd0a4f28419497f9722a3daafe3b4186f6b6457e090600090a35050565b6000602082840312156200015557600080fd5b81516001600160a01b03811681146200016d57600080fd5b9392505050565b6122fe80620001846000396000f3fe6080604052600436106100ea5760003560e01c80636e04ff0d1161008a578063ab07eb3e11610059578063ab07eb3e146102d6578063ada4ef30146102f6578063f2fde38b14610316578063fa2af9da146103365761012a565b80636e04ff0d14610241578063715018a61461026f5780638da5cb5b146102845780639012c4a8146102b65761012a565b806312065fe0116100c657806312065fe0146101cc578063237fc2a6146101df5780633dd05a99146101ff5780634585e33b146102215761012a565b80620b46f81461015f578062ce8e3e14610188578063032a59cb146101aa5761012a565b3661012a57604080513381523460208201527f88a5966d370b9919b20f3e2c13ff65706f196a4e32cc2c12bf57088f8852587491015b60405180910390a1005b604080513381523460208201527f88a5966d370b9919b20f3e2c13ff65706f196a4e32cc2c12bf57088f885258749101610120565b34801561016b57600080fd5b5061017560035481565b6040519081526020015b60405180910390f35b34801561019457600080fd5b5061019d610356565b60405161017f9190611a7b565b3480156101b657600080fd5b506101ca6101c5366004611b80565b6103c0565b005b3480156101d857600080fd5b5047610175565b3480156101eb57600080fd5b506101ca6101fa366004611bfe565b610736565b34801561020b57600080fd5b50610214610a94565b60405161017f9190611c95565b34801561022d57600080fd5b506101ca61023c366004611d81565b610c22565b34801561024d57600080fd5b5061026161025c366004611d81565b610c9f565b60405161017f929190611df3565b34801561027b57600080fd5b506101ca610fc4565b34801561029057600080fd5b506001546001600160a01b03165b6040516001600160a01b03909116815260200161017f565b3480156102c257600080fd5b506101ca6102d1366004611bfe565b610fd8565b3480156102e257600080fd5b506101ca6102f1366004611e16565b611024565b34801561030257600080fd5b506101ca610311366004611e9d565b611410565b34801561032257600080fd5b506101ca610331366004611e9d565b611490565b34801561034257600080fd5b5060025461029e906001600160a01b031681565b60606103606114ce565b60048054806020026020016040519081016040528092919081815260200182805480156103b657602002820191906000526020600020905b81546001600160a01b03168152600190910190602001808311610398575b5050505050905090565b60008651116104165760405162461bcd60e51b815260206004820152601b60248201527f4465736372697074696f6e2063616e6e6f7420626520656d707479000000000060448201526064015b60405180910390fd5b6001600160a01b03851661046c5760405162461bcd60e51b815260206004820152601c60248201527f41737365742063616e6e6f74206265207a65726f206164647265737300000000604482015260640161040d565b6001600160a01b0384166104c25760405162461bcd60e51b815260206004820181905260248201527f526563697069656e742063616e6e6f74206265207a65726f2061646472657373604482015260640161040d565b600083116105125760405162461bcd60e51b815260206004820181905260248201527f416d6f756e74206d7573742062652067726561746572207468616e207a65726f604482015260640161040d565b4281116105615760405162461bcd60e51b815260206004820181905260248201527f45787069726174696f6e206d75737420626520696e2074686520667574757265604482015260640161040d565b3360008181526005602090815260408083208151610120810183529485528483018b81526001600160a01b038b81169387019390935289831660608701526080860189905260a086018890524260c087015260e08601879052610100860185905281546001808201845592865293909420855160099094020180546001600160a01b031916939092169290921781559151908201906106009082611f4a565b5060408201516002820180546001600160a01b039283166001600160a01b0319918216179091556060840151600384018054919093169116179055608082015160048083019190915560a0830151600583015560c0830151600683015560e083015160078301556101008301516008830180549192909160ff191690600190849081111561069057610690611c5d565b021790555050506106a0336114fb565b6106e757600480546001810182556000919091527f8a35acfbc15ff81a39ae7d344fd709f28e8600b4aa8c65c6b64bfe7fe36bd19b0180546001600160a01b031916331790555b6000846001600160a01b0316336001600160a01b03166000805160206122a983398151915289898888428942604051610726979695949392919061200a565b60405180910390a4505050505050565b33600081815260056020526040902054829081106107665760405162461bcd60e51b815260040161040d90612057565b60046001600160a01b03831660009081526005602052604090208054839081106107925761079261208e565b600091825260209091206008600990920201015460ff1660048111156107ba576107ba611c5d565b036107d75760405162461bcd60e51b815260040161040d906120a4565b60026001600160a01b03831660009081526005602052604090208054839081106108035761080361208e565b600091825260209091206008600990920201015460ff16600481111561082b5761082b611c5d565b036108485760405162461bcd60e51b815260040161040d906120d2565b3360009081526005602052604090208054600291908590811061086d5761086d61208e565b60009182526020909120600860099092020101805460ff1916600183600481111561089a5761089a611c5d565b021790555060023360009081526005602052604090208054859081106108c2576108c261208e565b6000918252602080832060036009909302019190910154338084526005909252604090922080546001600160a01b03909316926000805160206122a98339815191529190889081106109165761091661208e565b906000526020600020906009020160010160056000336001600160a01b03166001600160a01b03168152602001908152602001600020888154811061095d5761095d61208e565b60009182526020808320600260099093020191909101543383526005909152604090912080546001600160a01b03909216918a90811061099f5761099f61208e565b90600052602060002090600902016004015460056000336001600160a01b03166001600160a01b031681526020019081526020016000208a815481106109e7576109e761208e565b600091825260208083206005600990930201820154338452919052604090912080548c908110610a1957610a1961208e565b90600052602060002090600902016006015460056000336001600160a01b03166001600160a01b031681526020019081526020016000208c81548110610a6157610a6161208e565b90600052602060002090600902016007015442604051610a879796959493929190612101565b60405180910390a4505050565b336000908152600560209081526040808320805482518185028101850190935280835260609492939192909184015b82821015610c195760008481526020908190206040805161012081019091526009850290910180546001600160a01b031682526001810180549293919291840191610b0d90611ec1565b80601f0160208091040260200160405190810160405280929190818152602001828054610b3990611ec1565b8015610b865780601f10610b5b57610100808354040283529160200191610b86565b820191906000526020600020905b815481529060010190602001808311610b6957829003601f168201915b505050918352505060028201546001600160a01b0390811660208301526003830154166040820152600480830154606083015260058301546080830152600683015460a0830152600783015460c0830152600883015460e09092019160ff1690811115610bf557610bf5611c5d565b6004811115610c0657610c06611c5d565b8152505081526020019060010190610ac3565b50505050905090565b610c2a611564565b600080610c39838501856121c0565b90925090506001600160a01b038216610c855760405162461bcd60e51b815260206004820152600e60248201526d24b73b30b634b21039b2b73232b960911b604482015260640161040d565b610c8f828261158e565b5050610c9b6001600055565b5050565b6000606060005b600454811015610fbb5760006005600060048481548110610cc957610cc961208e565b60009182526020808320909101546001600160a01b031683528281019390935260409182018120805483518186028101860190945280845292939092919084015b82821015610e605760008481526020908190206040805161012081019091526009850290910180546001600160a01b031682526001810180549293919291840191610d5490611ec1565b80601f0160208091040260200160405190810160405280929190818152602001828054610d8090611ec1565b8015610dcd5780601f10610da257610100808354040283529160200191610dcd565b820191906000526020600020905b815481529060010190602001808311610db057829003601f168201915b505050918352505060028201546001600160a01b0390811660208301526003830154166040820152600480830154606083015260058301546080830152600683015460a0830152600783015460c0830152600883015460e09092019160ff1690811115610e3c57610e3c611c5d565b6004811115610e4d57610e4d611c5d565b8152505081526020019060010190610d0a565b50505050905060005b8151811015610fa6576004828281518110610e8657610e8661208e565b602002602001015161010001516004811115610ea457610ea4611c5d565b14158015610ee257506002828281518110610ec157610ec161208e565b602002602001015161010001516004811115610edf57610edf611c5d565b14155b8015610f335750818181518110610efb57610efb61208e565b602002602001015160a00151828281518110610f1957610f1961208e565b602002602001015160c00151610f2f9190612202565b4210155b15610f94576001945060048381548110610f4f57610f4f61208e565b60009182526020918290200154604080516001600160a01b03909216928201929092529081018290526060016040516020818303038152906040529350505050610fbd565b80610f9e8161221b565b915050610e69565b50508080610fb39061221b565b915050610ca6565b505b9250929050565b610fcc6114ce565b610fd66000611a29565b565b610fe06114ce565b600581101561101f5760405162461bcd60e51b815260206004820152600b60248201526a496e76616c69642066656560a81b604482015260640161040d565b600355565b33600081815260056020526040902054889081106110545760405162461bcd60e51b815260040161040d90612057565b60046001600160a01b03831660009081526005602052604090208054839081106110805761108061208e565b600091825260209091206008600990920201015460ff1660048111156110a8576110a8611c5d565b036110c55760405162461bcd60e51b815260040161040d906120a4565b60026001600160a01b03831660009081526005602052604090208054839081106110f1576110f161208e565b600091825260209091206008600990920201015460ff16600481111561111957611119611c5d565b036111365760405162461bcd60e51b815260040161040d906120d2565b60008851116111875760405162461bcd60e51b815260206004820152601b60248201527f4465736372697074696f6e2063616e6e6f7420626520656d7074790000000000604482015260640161040d565b6001600160a01b0387166111dd5760405162461bcd60e51b815260206004820152601c60248201527f41737365742063616e6e6f74206265207a65726f206164647265737300000000604482015260640161040d565b6001600160a01b0386166112335760405162461bcd60e51b815260206004820181905260248201527f526563697069656e742063616e6e6f74206265207a65726f2061646472657373604482015260640161040d565b600085116112835760405162461bcd60e51b815260206004820181905260248201527f416d6f756e74206d7573742062652067726561746572207468616e207a65726f604482015260640161040d565b4283116112d25760405162461bcd60e51b815260206004820181905260248201527f45787069726174696f6e206d75737420626520696e2074686520667574757265604482015260640161040d565b33600090815260056020526040812080548b9081106112f3576112f361208e565b90600052602060002090600902019050888160010190816113149190611f4a565b506002810180546001600160a01b038a81166001600160a01b031992831617909255600383018054928a169290911691909117905560048101869055600581018590556007810184905560088101805460ff19166001179055611376336114fb565b6113bd57600480546001810182556000919091527f8a35acfbc15ff81a39ae7d344fd709f28e8600b4aa8c65c6b64bfe7fe36bd19b0180546001600160a01b031916331790555b6001876001600160a01b0316336001600160a01b03166000805160206122a98339815191528c8c8b8b428c426040516113fc979695949392919061200a565b60405180910390a450505050505050505050565b6114186114ce565b6001600160a01b03811661146e5760405162461bcd60e51b815260206004820152601760248201527f496e76616c696420706c6174666f726d2077616c6c6574000000000000000000604482015260640161040d565b600280546001600160a01b0319166001600160a01b0392909216919091179055565b6114986114ce565b6001600160a01b0381166114c257604051631e4fbdf760e01b81526000600482015260240161040d565b6114cb81611a29565b50565b6001546001600160a01b03163314610fd65760405163118cdaa760e01b815233600482015260240161040d565b6000805b60045481101561155b57826001600160a01b0316600482815481106115265761152661208e565b6000918252602090912001546001600160a01b0316036115495750600192915050565b806115538161221b565b9150506114ff565b50600092915050565b60026000540361158757604051633ee5aeb560e01b815260040160405180910390fd5b6002600055565b6001600160a01b0382166000908152600560205260409020548290829081106115c95760405162461bcd60e51b815260040161040d90612057565b60046001600160a01b03831660009081526005602052604090208054839081106115f5576115f561208e565b600091825260209091206008600990920201015460ff16600481111561161d5761161d611c5d565b0361163a5760405162461bcd60e51b815260040161040d906120a4565b60026001600160a01b03831660009081526005602052604090208054839081106116665761166661208e565b600091825260209091206008600990920201015460ff16600481111561168e5761168e611c5d565b036116ab5760405162461bcd60e51b815260040161040d906120d2565b6001600160a01b03841660009081526005602052604081208054859081106116d5576116d561208e565b90600052602060002090600902019050806005015481600601546116f99190612202565b42101561173e5760405162461bcd60e51b8152602060048201526013602482015272546f6f20736f6f6e20746f206578656375746560681b604482015260640161040d565b806007015442106117c35760088101805460ff1916600490811790915560038201546002830154828401546005850154600686015460078701546040516001600160a01b03968716968d8116966000805160206122a9833981519152966117b59660018d0196939092169490939192914290612101565b60405180910390a450611a23565b60006103e860035483600401546117da9190612234565b6117e4919061224b565b905060008183600401546117f89190612202565b60028401546040516370a0823160e01b81526001600160a01b038a81166004830152929350911690829082906370a0823190602401602060405180830381865afa15801561184a573d6000803e3d6000fd5b505050506040513d601f19601f8201168201806040525081019061186e919061226d565b10156118b35760405162461bcd60e51b8152602060048201526014602482015273496e73756666696369656e742062616c616e636560601b604482015260640161040d565b60038401546004808601546040516323b872dd60e01b81526001600160a01b038c811693820193909352928216602484015260448301528216906323b872dd906064016020604051808303816000875af1158015611915573d6000803e3d6000fd5b505050506040513d601f19601f820116820180604052508101906119399190612286565b506002546040516323b872dd60e01b81526001600160a01b038a81166004830152918216602482015260448101859052908216906323b872dd906064016020604051808303816000875af1158015611995573d6000803e3d6000fd5b505050506040513d601f19601f820116820180604052508101906119b99190612286565b5042600685015560038085015460028601546004870154600588015460078901546040516001600160a01b03958616958f8116956000805160206122a983398151915295611a169560018f01959390921693909242918290612101565b60405180910390a4505050505b50505050565b600180546001600160a01b038381166001600160a01b0319831681179093556040519116919082907f8be0079c531659141344cd1fd0a4f28419497f9722a3daafe3b4186f6b6457e090600090a35050565b6020808252825182820181905260009190848201906040850190845b81811015611abc5783516001600160a01b031683529284019291840191600101611a97565b50909695505050505050565b634e487b7160e01b600052604160045260246000fd5b600082601f830112611aef57600080fd5b813567ffffffffffffffff80821115611b0a57611b0a611ac8565b604051601f8301601f19908116603f01168101908282118183101715611b3257611b32611ac8565b81604052838152866020858801011115611b4b57600080fd5b836020870160208301376000602085830101528094505050505092915050565b6001600160a01b03811681146114cb57600080fd5b60008060008060008060c08789031215611b9957600080fd5b863567ffffffffffffffff811115611bb057600080fd5b611bbc89828a01611ade565b9650506020870135611bcd81611b6b565b94506040870135611bdd81611b6b565b959894975094956060810135955060808101359460a0909101359350915050565b600060208284031215611c1057600080fd5b5035919050565b6000815180845260005b81811015611c3d57602081850181015186830182015201611c21565b506000602082860101526020601f19601f83011685010191505092915050565b634e487b7160e01b600052602160045260246000fd5b60058110611c9157634e487b7160e01b600052602160045260246000fd5b9052565b60006020808301818452808551808352604092508286019150828160051b87010184880160005b83811015611d7357888303603f19018552815180516001600160a01b0316845261012088820151818a870152611cf482870182611c17565b91505087820151611d0f898701826001600160a01b03169052565b506060828101516001600160a01b0316908601526080808301519086015260a0808301519086015260c0808301519086015260e080830151908601526101009182015191611d5f81870184611c73565b509588019593505090860190600101611cbc565b509098975050505050505050565b60008060208385031215611d9457600080fd5b823567ffffffffffffffff80821115611dac57600080fd5b818501915085601f830112611dc057600080fd5b813581811115611dcf57600080fd5b866020828501011115611de157600080fd5b60209290920196919550909350505050565b8215158152604060208201526000611e0e6040830184611c17565b949350505050565b600080600080600080600060e0888a031215611e3157600080fd5b87359650602088013567ffffffffffffffff811115611e4f57600080fd5b611e5b8a828b01611ade565b9650506040880135611e6c81611b6b565b94506060880135611e7c81611b6b565b9699959850939660808101359560a0820135955060c0909101359350915050565b600060208284031215611eaf57600080fd5b8135611eba81611b6b565b9392505050565b600181811c90821680611ed557607f821691505b602082108103611ef557634e487b7160e01b600052602260045260246000fd5b50919050565b601f821115611f4557600081815260208120601f850160051c81016020861015611f225750805b601f850160051c820191505b81811015611f4157828155600101611f2e565b5050505b505050565b815167ffffffffffffffff811115611f6457611f64611ac8565b611f7881611f728454611ec1565b84611efb565b602080601f831160018114611fad5760008415611f955750858301515b600019600386901b1c1916600185901b178555611f41565b600085815260208120601f198616915b82811015611fdc57888601518255948401946001909101908401611fbd565b5085821015611ffa5787850151600019600388901b60f8161c191681555b5050505050600190811b01905550565b60e08152600061201d60e083018a611c17565b6001600160a01b039890981660208301525060408101959095526060850193909352608084019190915260a083015260c090910152919050565b60208082526017908201527f5363686564756c6520646f6573206e6f74206578697374000000000000000000604082015260600190565b634e487b7160e01b600052603260045260246000fd5b60208082526014908201527314d8da19591d5b19481dd85cc8195e1c1a5c995960621b604082015260600190565b60208082526015908201527414d8da19591d5b19481dd85cc818d85b98d95b1959605a1b604082015260600190565b60e08152600080895461211381611ec1565b8060e0860152610100600180841660008114612136576001811461215057612181565b60ff1985168884015283151560051b880183019550612181565b8e60005260208060002060005b868110156121785781548b820187015290840190820161215d565b8a018501975050505b505050506001600160a01b038a16602085015250905060408201969096526060810194909452608084019290925260a083015260c09091015292915050565b600080604083850312156121d357600080fd5b82356121de81611b6b565b946020939093013593505050565b634e487b7160e01b600052601160045260246000fd5b80820180821115612215576122156121ec565b92915050565b60006001820161222d5761222d6121ec565b5060010190565b8082028115828204841417612215576122156121ec565b60008261226857634e487b7160e01b600052601260045260246000fd5b500490565b60006020828403121561227f57600080fd5b5051919050565b60006020828403121561229857600080fd5b81518015158114611eba57600080fdfe2bc4699f678c02a33c3afc1be338db21a1615d56b0a858db75ae5338e1380963a2646970667358221220d4ec55090439f64ec9bee6fe9b4e5aa40f2547119208e708f23f3909041943ae64736f6c63430008140033",
  "linkReferences": {},
  "deployedLinkReferences": {}
}