{
  "_format": "hh-sol-artifact-1",
  "contractName": "AutoSendAssets",
  "sourceName": "contracts/AutoSendAssets.sol",
  "abi": [
    {
      "inputs": [
        {
          "internalType": "address",
          "name": "_platformWallet",
          "type": "address"
        }
      ],
      "stateMutability": "nonpayable",
      "type": "constructor"
    },
    {
      "inputs": [
        {
          "internalType": "address",
          "name": "owner",
          "type": "address"
        }
      ],
      "name": "OwnableInvalidOwner",
      "type": "error"
    },
    {
      "inputs": [
        {
          "internalType": "address",
          "name": "account",
          "type": "address"
        }
      ],
      "name": "OwnableUnauthorizedAccount",
      "type": "error"
    },
    {
      "inputs": [],
      "name": "ReentrancyGuardReentrantCall",
      "type": "error"
    },
    {
      "anonymous": false,
      "inputs": [
        {
          "indexed": true,
          "internalType": "address",
          "name": "previousOwner",
          "type": "address"
        },
        {
          "indexed": true,
          "internalType": "address",
          "name": "newOwner",
          "type": "address"
        }
      ],
      "name": "OwnershipTransferred",
      "type": "event"
    },
    {
      "anonymous": false,
      "inputs": [
        {
          "indexed": false,
          "internalType": "address",
          "name": "sender",
          "type": "address"
        },
        {
          "indexed": false,
          "internalType": "uint256",
          "name": "amount",
          "type": "uint256"
        }
      ],
      "name": "Received",
      "type": "event"
    },
    {
      "anonymous": false,
      "inputs": [
        {
          "indexed": true,
          "internalType": "address",
          "name": "user",
          "type": "address"
        },
        {
          "indexed": true,
          "internalType": "address",
          "name": "recipient",
          "type": "address"
        },
        {
          "indexed": false,
          "internalType": "string",
          "name": "description",
          "type": "string"
        },
        {
          "indexed": false,
          "internalType": "address",
          "name": "asset",
          "type": "address"
        },
        {
          "indexed": false,
          "internalType": "uint256",
          "name": "amount",
          "type": "uint256"
        },
        {
          "indexed": false,
          "internalType": "uint256",
          "name": "interval",
          "type": "uint256"
        },
        {
          "indexed": false,
          "internalType": "uint256",
          "name": "lastExecutedTime",
          "type": "uint256"
        },
        {
          "indexed": false,
          "internalType": "uint256",
          "name": "expiredTime",
          "type": "uint256"
        },
        {
          "indexed": true,
          "internalType": "enum AutoSendAssets.State",
          "name": "state",
          "type": "uint8"
        },
        {
          "indexed": false,
          "internalType": "uint256",
          "name": "blockTime",
          "type": "uint256"
        }
      ],
      "name": "StateUpdated",
      "type": "event"
    },
    {
      "stateMutability": "payable",
      "type": "fallback"
    },
    {
      "inputs": [],
      "name": "FEE_PERCENTAGE",
      "outputs": [
        {
          "internalType": "uint256",
          "name": "",
          "type": "uint256"
        }
      ],
      "stateMutability": "view",
      "type": "function"
    },
    {
      "inputs": [
        {
          "internalType": "uint256",
          "name": "index",
          "type": "uint256"
        }
      ],
      "name": "cancelSchedule",
      "outputs": [],
      "stateMutability": "nonpayable",
      "type": "function"
    },
    {
      "inputs": [
        {
          "internalType": "bytes",
          "name": "",
          "type": "bytes"
        }
      ],
      "name": "checkUpkeep",
      "outputs": [
        {
          "internalType": "bool",
          "name": "upkeepNeeded",
          "type": "bool"
        },
        {
          "internalType": "bytes",
          "name": "performData",
          "type": "bytes"
        }
      ],
      "stateMutability": "nonpayable",
      "type": "function"
    },
    {
      "inputs": [
        {
          "internalType": "string",
          "name": "description",
          "type": "string"
        },
        {
          "internalType": "address",
          "name": "asset",
          "type": "address"
        },
        {
          "internalType": "address",
          "name": "recipient",
          "type": "address"
        },
        {
          "internalType": "uint256",
          "name": "amount",
          "type": "uint256"
        },
        {
          "internalType": "uint256",
          "name": "interval",
          "type": "uint256"
        },
        {
          "internalType": "uint256",
          "name": "expiredTime",
          "type": "uint256"
        }
      ],
      "name": "createSchedule",
      "outputs": [],
      "stateMutability": "nonpayable",
      "type": "function"
    },
    {
      "inputs": [],
      "name": "getBalance",
      "outputs": [
        {
          "internalType": "uint256",
          "name": "",
          "type": "uint256"
        }
      ],
      "stateMutability": "view",
      "type": "function"
    },
    {
      "inputs": [],
      "name": "getSchedules",
      "outputs": [
        {
          "components": [
            {
              "internalType": "address",
              "name": "sender",
              "type": "address"
            },
            {
              "internalType": "string",
              "name": "description",
              "type": "string"
            },
            {
              "internalType": "address",
              "name": "asset",
              "type": "address"
            },
            {
              "internalType": "address",
              "name": "recipient",
              "type": "address"
            },
            {
              "internalType": "uint256",
              "name": "amount",
              "type": "uint256"
            },
            {
              "internalType": "uint256",
              "name": "interval",
              "type": "uint256"
            },
            {
              "internalType": "uint256",
              "name": "lastExecutedTime",
              "type": "uint256"
            },
            {
              "internalType": "uint256",
              "name": "expiredTime",
              "type": "uint256"
            },
            {
              "internalType": "enum AutoSendAssets.State",
              "name": "state",
              "type": "uint8"
            }
          ],
          "internalType": "struct AutoSendAssets.Schedule[]",
          "name": "",
          "type": "tuple[]"
        }
      ],
      "stateMutability": "view",
      "type": "function"
    },
    {
      "inputs": [],
      "name": "getUsers",
      "outputs": [
        {
          "internalType": "address[]",
          "name": "",
          "type": "address[]"
        }
      ],
      "stateMutability": "view",
      "type": "function"
    },
    {
      "inputs": [],
      "name": "owner",
      "outputs": [
        {
          "internalType": "address",
          "name": "",
          "type": "address"
        }
      ],
      "stateMutability": "view",
      "type": "function"
    },
    {
      "inputs": [
        {
          "internalType": "bytes",
          "name": "performData",
          "type": "bytes"
        }
      ],
      "name": "performUpkeep",
      "outputs": [],
      "stateMutability": "nonpayable",
      "type": "function"
    },
    {
      "inputs": [],
      "name": "platformWallet",
      "outputs": [
        {
          "internalType": "address",
          "name": "",
          "type": "address"
        }
      ],
      "stateMutability": "view",
      "type": "function"
    },
    {
      "inputs": [],
      "name": "renounceOwnership",
      "outputs": [],
      "stateMutability": "nonpayable",
      "type": "function"
    },
    {
      "inputs": [
        {
          "internalType": "address",
          "name": "newOwner",
          "type": "address"
        }
      ],
      "name": "transferOwnership",
      "outputs": [],
      "stateMutability": "nonpayable",
      "type": "function"
    },
    {
      "inputs": [
        {
          "internalType": "uint256",
          "name": "_newFee",
          "type": "uint256"
        }
      ],
      "name": "updateFee",
      "outputs": [],
      "stateMutability": "nonpayable",
      "type": "function"
    },
    {
      "inputs": [
        {
          "internalType": "address",
          "name": "_platformWallet",
          "type": "address"
        }
      ],
      "name": "updatePlatformWallet",
      "outputs": [],
      "stateMutability": "nonpayable",
      "type": "function"
    },
    {
      "inputs": [
        {
          "internalType": "uint256",
          "name": "index",
          "type": "uint256"
        },
        {
          "internalType": "string",
          "name": "description",
          "type": "string"
        },
        {
          "internalType": "address",
          "name": "asset",
          "type": "address"
        },
        {
          "internalType": "address",
          "name": "recipient",
          "type": "address"
        },
        {
          "internalType": "uint256",
          "name": "amount",
          "type": "uint256"
        },
        {
          "internalType": "uint256",
          "name": "interval",
          "type": "uint256"
        },
        {
          "internalType": "uint256",
          "name": "expiredTime",
          "type": "uint256"
        }
      ],
      "name": "updateSchedule",
      "outputs": [],
      "stateMutability": "nonpayable",
      "type": "function"
    },
    {
      "stateMutability": "payable",
      "type": "receive"
    }
  ],
  "bytecode": "0x608060405260056003553480156200001657600080fd5b506040516200279f3803806200279f833981016040819052620000399162000142565b600160005533806200006657604051631e4fbdf760e01b8152600060048201526024015b60405180910390fd5b6200007181620000f0565b506001600160a01b038116620000ca5760405162461bcd60e51b815260206004820152601760248201527f496e76616c696420706c6174666f726d2077616c6c657400000000000000000060448201526064016200005d565b600280546001600160a01b0319166001600160a01b039290921691909117905562000174565b600180546001600160a01b038381166001600160a01b0319831681179093556040519116919082907f8be0079c531659141344cd1fd0a4f28419497f9722a3daafe3b4186f6b6457e090600090a35050565b6000602082840312156200015557600080fd5b81516001600160a01b03811681146200016d57600080fd5b9392505050565b61261b80620001846000396000f3fe6080604052600436106100ea5760003560e01c80636e04ff0d1161008a578063ab07eb3e11610059578063ab07eb3e146102d6578063ada4ef30146102f6578063f2fde38b14610316578063fa2af9da146103365761012a565b80636e04ff0d14610241578063715018a61461026f5780638da5cb5b146102845780639012c4a8146102b65761012a565b806312065fe0116100c657806312065fe0146101cc578063237fc2a6146101df5780633dd05a99146101ff5780634585e33b146102215761012a565b80620b46f81461015f578062ce8e3e14610188578063032a59cb146101aa5761012a565b3661012a57604080513381523460208201527f88a5966d370b9919b20f3e2c13ff65706f196a4e32cc2c12bf57088f8852587491015b60405180910390a1005b604080513381523460208201527f88a5966d370b9919b20f3e2c13ff65706f196a4e32cc2c12bf57088f885258749101610120565b34801561016b57600080fd5b5061017560035481565b6040519081526020015b60405180910390f35b34801561019457600080fd5b5061019d610356565b60405161017f9190611dbe565b3480156101b657600080fd5b506101ca6101c5366004611eca565b6103c0565b005b3480156101d857600080fd5b5047610175565b3480156101eb57600080fd5b506101ca6101fa366004611f44565b6107a8565b34801561020b57600080fd5b50610214610b06565b60405161017f9190611fdb565b34801561022d57600080fd5b506101ca61023c3660046120c7565b610c94565b34801561024d57600080fd5b5061026161025c3660046120c7565b610f98565b60405161017f929190612139565b34801561027b57600080fd5b506101ca611265565b34801561029057600080fd5b506001546001600160a01b03165b6040516001600160a01b03909116815260200161017f565b3480156102c257600080fd5b506101ca6102d1366004611f44565b611279565b3480156102e257600080fd5b506101ca6102f136600461215c565b6112c5565b34801561030257600080fd5b506101ca6103113660046121df565b6116b1565b34801561032257600080fd5b506101ca6103313660046121df565b611731565b34801561034257600080fd5b5060025461029e906001600160a01b031681565b606061036061176f565b60048054806020026020016040519081016040528092919081815260200182805480156103b657602002820191906000526020600020905b81546001600160a01b03168152600190910190602001808311610398575b5050505050905090565b60008651116104165760405162461bcd60e51b815260206004820152601b60248201527f4465736372697074696f6e2063616e6e6f7420626520656d707479000000000060448201526064015b60405180910390fd5b6001600160a01b03851661046c5760405162461bcd60e51b815260206004820152601c60248201527f41737365742063616e6e6f74206265207a65726f206164647265737300000000604482015260640161040d565b6001600160a01b0384166104c25760405162461bcd60e51b815260206004820181905260248201527f526563697069656e742063616e6e6f74206265207a65726f2061646472657373604482015260640161040d565b600083116105125760405162461bcd60e51b815260206004820181905260248201527f416d6f756e74206d7573742062652067726561746572207468616e207a65726f604482015260640161040d565b4281116105615760405162461bcd60e51b815260206004820181905260248201527f45787069726174696f6e206d75737420626520696e2074686520667574757265604482015260640161040d565b3360008181526005602090815260408083208151610120810183529485528483018b81526001600160a01b038b81169387019390935289831660608701526080860189905260a086018890524260c087015260e08601879052610100860185905281546001808201845592865293909420855160099094020180546001600160a01b031916939092169290921781559151908201906106009082612286565b5060408201516002820180546001600160a01b039283166001600160a01b0319918216179091556060840151600384018054919093169116179055608082015160048083019190915560a0830151600583015560c0830151600683015560e083015160078301556101008301516008830180549192909160ff191690600190849081111561069057610690611fa3565b021790555050506106a03361179c565b6106e757600480546001810182556000919091527f8a35acfbc15ff81a39ae7d344fd709f28e8600b4aa8c65c6b64bfe7fe36bd19b0180546001600160a01b031916331790555b6000846001600160a01b0316336001600160a01b03166000805160206125c6833981519152898988884289426040516107269796959493929190612346565b60405180910390a433600081815260056020526040902054610754919061074f906001906123a9565b611805565b6107a05760405162461bcd60e51b815260206004820152601a60248201527f5061796d656e742070726f6365737320776173206661696c6564000000000000604482015260640161040d565b505050505050565b33600081815260056020526040902054829081106107d85760405162461bcd60e51b815260040161040d906123bc565b60046001600160a01b0383166000908152600560205260409020805483908110610804576108046123f3565b600091825260209091206008600990920201015460ff16600481111561082c5761082c611fa3565b036108495760405162461bcd60e51b815260040161040d90612409565b60026001600160a01b0383166000908152600560205260409020805483908110610875576108756123f3565b600091825260209091206008600990920201015460ff16600481111561089d5761089d611fa3565b036108ba5760405162461bcd60e51b815260040161040d90612437565b336000908152600560205260409020805460029190859081106108df576108df6123f3565b60009182526020909120600860099092020101805460ff1916600183600481111561090c5761090c611fa3565b02179055506002336000908152600560205260409020805485908110610934576109346123f3565b6000918252602080832060036009909302019190910154338084526005909252604090922080546001600160a01b03909316926000805160206125c6833981519152919088908110610988576109886123f3565b906000526020600020906009020160010160056000336001600160a01b03166001600160a01b0316815260200190815260200160002088815481106109cf576109cf6123f3565b60009182526020808320600260099093020191909101543383526005909152604090912080546001600160a01b03909216918a908110610a1157610a116123f3565b90600052602060002090600902016004015460056000336001600160a01b03166001600160a01b031681526020019081526020016000208a81548110610a5957610a596123f3565b600091825260208083206005600990930201820154338452919052604090912080548c908110610a8b57610a8b6123f3565b90600052602060002090600902016006015460056000336001600160a01b03166001600160a01b031681526020019081526020016000208c81548110610ad357610ad36123f3565b90600052602060002090600902016007015442604051610af99796959493929190612466565b60405180910390a4505050565b336000908152600560209081526040808320805482518185028101850190935280835260609492939192909184015b82821015610c8b5760008481526020908190206040805161012081019091526009850290910180546001600160a01b031682526001810180549293919291840191610b7f90612201565b80601f0160208091040260200160405190810160405280929190818152602001828054610bab90612201565b8015610bf85780601f10610bcd57610100808354040283529160200191610bf8565b820191906000526020600020905b815481529060010190602001808311610bdb57829003601f168201915b505050918352505060028201546001600160a01b0390811660208301526003830154166040820152600480830154606083015260058301546080830152600683015460a0830152600783015460c0830152600883015460e09092019160ff1690811115610c6757610c67611fa3565b6004811115610c7857610c78611fa3565b8152505081526020019060010190610b35565b50505050905090565b610c9c611aaf565b60005b600454811015610f895760006005600060048481548110610cc257610cc26123f3565b60009182526020808320909101546001600160a01b031683528281019390935260409182018120805483518186028101860190945280845292939092919084015b82821015610e595760008481526020908190206040805161012081019091526009850290910180546001600160a01b031682526001810180549293919291840191610d4d90612201565b80601f0160208091040260200160405190810160405280929190818152602001828054610d7990612201565b8015610dc65780601f10610d9b57610100808354040283529160200191610dc6565b820191906000526020600020905b815481529060010190602001808311610da957829003601f168201915b505050918352505060028201546001600160a01b0390811660208301526003830154166040820152600480830154606083015260058301546080830152600683015460a0830152600783015460c0830152600883015460e09092019160ff1690811115610e3557610e35611fa3565b6004811115610e4657610e46611fa3565b8152505081526020019060010190610d03565b50505050905060005b8151811015610f74576004828281518110610e7f57610e7f6123f3565b602002602001015161010001516004811115610e9d57610e9d611fa3565b14158015610edb57506002828281518110610eba57610eba6123f3565b602002602001015161010001516004811115610ed857610ed8611fa3565b14155b8015610f2c5750818181518110610ef457610ef46123f3565b602002602001015160a00151828281518110610f1257610f126123f3565b602002602001015160c00151610f289190612525565b4210155b15610f6257610f6260048481548110610f4757610f476123f3565b6000918252602090912001546001600160a01b031682611ad9565b80610f6c81612538565b915050610e62565b50508080610f8190612538565b915050610c9f565b50610f946001600055565b5050565b6000606060005b60045481101561125d5760006005600060048481548110610fc257610fc26123f3565b60009182526020808320909101546001600160a01b031683528281019390935260409182018120805483518186028101860190945280845292939092919084015b828210156111595760008481526020908190206040805161012081019091526009850290910180546001600160a01b03168252600181018054929391929184019161104d90612201565b80601f016020809104026020016040519081016040528092919081815260200182805461107990612201565b80156110c65780601f1061109b576101008083540402835291602001916110c6565b820191906000526020600020905b8154815290600101906020018083116110a957829003601f168201915b505050918352505060028201546001600160a01b0390811660208301526003830154166040820152600480830154606083015260058301546080830152600683015460a0830152600783015460c0830152600883015460e09092019160ff169081111561113557611135611fa3565b600481111561114657611146611fa3565b8152505081526020019060010190611003565b50505050905060005b815181101561124857600482828151811061117f5761117f6123f3565b60200260200101516101000151600481111561119d5761119d611fa3565b141580156111db575060028282815181106111ba576111ba6123f3565b6020026020010151610100015160048111156111d8576111d8611fa3565b14155b801561122c57508181815181106111f4576111f46123f3565b602002602001015160a00151828281518110611212576112126123f3565b602002602001015160c001516112289190612525565b4210155b1561123657600194505b8061124081612538565b915050611162565b5050808061125590612538565b915050610f9f565b509250929050565b61126d61176f565b6112776000611d6c565b565b61128161176f565b60058110156112c05760405162461bcd60e51b815260206004820152600b60248201526a496e76616c69642066656560a81b604482015260640161040d565b600355565b33600081815260056020526040902054889081106112f55760405162461bcd60e51b815260040161040d906123bc565b60046001600160a01b0383166000908152600560205260409020805483908110611321576113216123f3565b600091825260209091206008600990920201015460ff16600481111561134957611349611fa3565b036113665760405162461bcd60e51b815260040161040d90612409565b60026001600160a01b0383166000908152600560205260409020805483908110611392576113926123f3565b600091825260209091206008600990920201015460ff1660048111156113ba576113ba611fa3565b036113d75760405162461bcd60e51b815260040161040d90612437565b60008851116114285760405162461bcd60e51b815260206004820152601b60248201527f4465736372697074696f6e2063616e6e6f7420626520656d7074790000000000604482015260640161040d565b6001600160a01b03871661147e5760405162461bcd60e51b815260206004820152601c60248201527f41737365742063616e6e6f74206265207a65726f206164647265737300000000604482015260640161040d565b6001600160a01b0386166114d45760405162461bcd60e51b815260206004820181905260248201527f526563697069656e742063616e6e6f74206265207a65726f2061646472657373604482015260640161040d565b600085116115245760405162461bcd60e51b815260206004820181905260248201527f416d6f756e74206d7573742062652067726561746572207468616e207a65726f604482015260640161040d565b4283116115735760405162461bcd60e51b815260206004820181905260248201527f45787069726174696f6e206d75737420626520696e2074686520667574757265604482015260640161040d565b33600090815260056020526040812080548b908110611594576115946123f3565b90600052602060002090600902019050888160010190816115b59190612286565b506002810180546001600160a01b038a81166001600160a01b031992831617909255600383018054928a169290911691909117905560048101869055600581018590556007810184905560088101805460ff191660011790556116173361179c565b61165e57600480546001810182556000919091527f8a35acfbc15ff81a39ae7d344fd709f28e8600b4aa8c65c6b64bfe7fe36bd19b0180546001600160a01b031916331790555b6001876001600160a01b0316336001600160a01b03166000805160206125c68339815191528c8c8b8b428c4260405161169d9796959493929190612346565b60405180910390a450505050505050505050565b6116b961176f565b6001600160a01b03811661170f5760405162461bcd60e51b815260206004820152601760248201527f496e76616c696420706c6174666f726d2077616c6c6574000000000000000000604482015260640161040d565b600280546001600160a01b0319166001600160a01b0392909216919091179055565b61173961176f565b6001600160a01b03811661176357604051631e4fbdf760e01b81526000600482015260240161040d565b61176c81611d6c565b50565b6001546001600160a01b031633146112775760405163118cdaa760e01b815233600482015260240161040d565b6000805b6004548110156117fc57826001600160a01b0316600482815481106117c7576117c76123f3565b6000918252602090912001546001600160a01b0316036117ea5750600192915050565b806117f481612538565b9150506117a0565b50600092915050565b6001600160a01b0382166000908152600560205260408120805482919084908110611832576118326123f3565b9060005260206000209060090201905060006103e860035483600401546118599190612551565b6118639190612568565b905060008183600401546118779190612525565b60028401546040516370a0823160e01b81526001600160a01b038981166004830152929350911690829082906370a0823190602401602060405180830381865afa1580156118c9573d6000803e3d6000fd5b505050506040513d601f19601f820116820180604052508101906118ed919061258a565b10156119325760405162461bcd60e51b8152602060048201526014602482015273496e73756666696369656e742062616c616e636560601b604482015260640161040d565b60038401546004808601546040516323b872dd60e01b81526001600160a01b038b811693820193909352928216602484015260448301528216906323b872dd906064016020604051808303816000875af1158015611994573d6000803e3d6000fd5b505050506040513d601f19601f820116820180604052508101906119b891906125a3565b506002546040516323b872dd60e01b81526001600160a01b038981166004830152918216602482015260448101859052908216906323b872dd906064016020604051808303816000875af1158015611a14573d6000803e3d6000fd5b505050506040513d601f19601f82011682018060405250810190611a3891906125a3565b5060038085015460028601546004870154600588015460078901546040516001600160a01b03958616958e8116956000805160206125c683398151915295611a8f9560018f01959390921693909242918290612466565b60405180910390a442846006018190555060019450505050505b92915050565b600260005403611ad257604051633ee5aeb560e01b815260040160405180910390fd5b6002600055565b6001600160a01b038216600090815260056020526040902054829082908110611b145760405162461bcd60e51b815260040161040d906123bc565b60046001600160a01b0383166000908152600560205260409020805483908110611b4057611b406123f3565b600091825260209091206008600990920201015460ff166004811115611b6857611b68611fa3565b03611b855760405162461bcd60e51b815260040161040d90612409565b60026001600160a01b0383166000908152600560205260409020805483908110611bb157611bb16123f3565b600091825260209091206008600990920201015460ff166004811115611bd957611bd9611fa3565b03611bf65760405162461bcd60e51b815260040161040d90612437565b6001600160a01b0384166000908152600560205260408120805485908110611c2057611c206123f3565b9060005260206000209060090201905080600501548160060154611c449190612525565b421015611c895760405162461bcd60e51b8152602060048201526013602482015272546f6f20736f6f6e20746f206578656375746560681b604482015260640161040d565b80600701544210611d0e5760088101805460ff1916600490811790915560038201546002830154828401546005850154600686015460078701546040516001600160a01b03968716968d8116966000805160206125c683398151915296611d009660018d0196939092169490939192914290612466565b60405180910390a450611d66565b611d188585611805565b611d645760405162461bcd60e51b815260206004820152601a60248201527f5061796d656e742070726f6365737320776173206661696c6564000000000000604482015260640161040d565b505b50505050565b600180546001600160a01b038381166001600160a01b0319831681179093556040519116919082907f8be0079c531659141344cd1fd0a4f28419497f9722a3daafe3b4186f6b6457e090600090a35050565b6020808252825182820181905260009190848201906040850190845b81811015611dff5783516001600160a01b031683529284019291840191600101611dda565b50909695505050505050565b634e487b7160e01b600052604160045260246000fd5b600082601f830112611e3257600080fd5b813567ffffffffffffffff80821115611e4d57611e4d611e0b565b604051601f8301601f19908116603f01168101908282118183101715611e7557611e75611e0b565b81604052838152866020858801011115611e8e57600080fd5b836020870160208301376000602085830101528094505050505092915050565b80356001600160a01b0381168114611ec557600080fd5b919050565b60008060008060008060c08789031215611ee357600080fd5b863567ffffffffffffffff811115611efa57600080fd5b611f0689828a01611e21565b965050611f1560208801611eae565b9450611f2360408801611eae565b9350606087013592506080870135915060a087013590509295509295509295565b600060208284031215611f5657600080fd5b5035919050565b6000815180845260005b81811015611f8357602081850181015186830182015201611f67565b506000602082860101526020601f19601f83011685010191505092915050565b634e487b7160e01b600052602160045260246000fd5b60058110611fd757634e487b7160e01b600052602160045260246000fd5b9052565b60006020808301818452808551808352604092508286019150828160051b87010184880160005b838110156120b957888303603f19018552815180516001600160a01b0316845261012088820151818a87015261203a82870182611f5d565b91505087820151612055898701826001600160a01b03169052565b506060828101516001600160a01b0316908601526080808301519086015260a0808301519086015260c0808301519086015260e0808301519086015261010091820151916120a581870184611fb9565b509588019593505090860190600101612002565b509098975050505050505050565b600080602083850312156120da57600080fd5b823567ffffffffffffffff808211156120f257600080fd5b818501915085601f83011261210657600080fd5b81358181111561211557600080fd5b86602082850101111561212757600080fd5b60209290920196919550909350505050565b82151581526040602082015260006121546040830184611f5d565b949350505050565b600080600080600080600060e0888a03121561217757600080fd5b87359650602088013567ffffffffffffffff81111561219557600080fd5b6121a18a828b01611e21565b9650506121b060408901611eae565b94506121be60608901611eae565b9699959850939660808101359560a0820135955060c0909101359350915050565b6000602082840312156121f157600080fd5b6121fa82611eae565b9392505050565b600181811c9082168061221557607f821691505b60208210810361223557634e487b7160e01b600052602260045260246000fd5b50919050565b601f82111561228157600081815260208120601f850160051c810160208610156122625750805b601f850160051c820191505b818110156107a05782815560010161226e565b505050565b815167ffffffffffffffff8111156122a0576122a0611e0b565b6122b4816122ae8454612201565b8461223b565b602080601f8311600181146122e957600084156122d15750858301515b600019600386901b1c1916600185901b1785556107a0565b600085815260208120601f198616915b82811015612318578886015182559484019460019091019084016122f9565b50858210156123365787850151600019600388901b60f8161c191681555b5050505050600190811b01905550565b60e08152600061235960e083018a611f5d565b6001600160a01b039890981660208301525060408101959095526060850193909352608084019190915260a083015260c090910152919050565b634e487b7160e01b600052601160045260246000fd5b81810381811115611aa957611aa9612393565b60208082526017908201527f5363686564756c6520646f6573206e6f74206578697374000000000000000000604082015260600190565b634e487b7160e01b600052603260045260246000fd5b60208082526014908201527314d8da19591d5b19481dd85cc8195e1c1a5c995960621b604082015260600190565b60208082526015908201527414d8da19591d5b19481dd85cc818d85b98d95b1959605a1b604082015260600190565b60e08152600080895461247881612201565b8060e086015261010060018084166000811461249b57600181146124b5576124e6565b60ff1985168884015283151560051b8801830195506124e6565b8e60005260208060002060005b868110156124dd5781548b82018701529084019082016124c2565b8a018501975050505b505050506001600160a01b038a16602085015250905060408201969096526060810194909452608084019290925260a083015260c09091015292915050565b80820180821115611aa957611aa9612393565b60006001820161254a5761254a612393565b5060010190565b8082028115828204841417611aa957611aa9612393565b60008261258557634e487b7160e01b600052601260045260246000fd5b500490565b60006020828403121561259c57600080fd5b5051919050565b6000602082840312156125b557600080fd5b815180151581146121fa57600080fdfe2bc4699f678c02a33c3afc1be338db21a1615d56b0a858db75ae5338e1380963a2646970667358221220f648276cbb0199d55c7870bd99775b45ee7498431fa877cb34d77bab61dd009764736f6c63430008140033",
  "linkReferences": {},
  "deployedLinkReferences": {}
}